{
  "address": "0x496B46067A82E6579142DD2688216fB544E81701",
  "abi": [
    {
      "inputs": [
        {
          "internalType": "bytes32[]",
          "name": "proof",
          "type": "bytes32[]"
        },
        {
          "internalType": "bytes32",
          "name": "root",
          "type": "bytes32"
        },
        {
          "internalType": "address",
          "name": "user",
          "type": "address"
        }
      ],
      "name": "verify",
      "outputs": [
        {
          "internalType": "bool",
          "name": "",
          "type": "bool"
        }
      ],
      "stateMutability": "pure",
      "type": "function"
    }
  ],
  "transactionHash": "0xc3ef2dd8fb39a678381d359917470f5617e718f0351b7df9b132d728d2fb885e",
  "args": [],
  "numDeployments": 1,
  "solcInputHash": "2967e8e063e198e37d144233058a3d80",
  "bytecode": "0x608080604052346015576101e6908161001b8239f35b600080fdfe608080604052600436101561001357600080fd5b60003560e01c63879c84e91461002857600080fd5b3461015a57606036600319011261015a576004359067ffffffffffffffff821161015a573660238301121561015a5781600401359167ffffffffffffffff831161015a578260051b916024838301019036821161015a576044359073ffffffffffffffffffffffffffffffffffffffff8216820361015a5760208101916bffffffffffffffffffffffff199060601b168252601481526100c960348261015f565b519020916000946100e0602060405196018661015f565b8452602401602084015b82821061014a575050509180925b825184101561013b5760208460051b840101519081811060001461012a5782526020526001604082205b9301926100f8565b908252602052600160408220610122565b60209060405190602435148152f35b81358152602091820191016100ea565b600080fd5b90601f8019910116810190811067ffffffffffffffff82111761018157604052565b7f4e487b7100000000000000000000000000000000000000000000000000000000600052604160045260246000fdfea2646970667358221220fdf499c161e04361ac7145298a44b45a1d2a29569941f5f16b8618d9af52b03c64736f6c634300081c0033",
  "devdoc": {
    "kind": "dev",
    "methods": {},
    "version": 1
  },
  "userdoc": {
    "kind": "user",
    "methods": {},
    "version": 1
  },
  "storageLayout": {
    "storage": [],
    "types": null
  }
}