{
  "address": "0xe4A86a88b9E842E0982fE2267CeDbd1C5ac88B75",
  "abi": [
    {
      "inputs": [
        {
          "internalType": "address",
          "name": "initialOwner",
          "type": "address"
        },
        {
          "internalType": "uint256",
          "name": "_cost",
          "type": "uint256"
        },
        {
          "internalType": "uint256",
          "name": "_maxSupply",
          "type": "uint256"
        },
        {
          "internalType": "uint256",
          "name": "_maxPerWallet",
          "type": "uint256"
        },
        {
          "internalType": "bytes32",
          "name": "_merkleRoot",
          "type": "bytes32"
        },
        {
          "internalType": "uint256",
          "name": "_whitelistEndTime",
          "type": "uint256"
        }
      ],
      "stateMutability": "nonpayable",
      "type": "constructor"
    },
    {
      "inputs": [
        {
          "internalType": "address",
          "name": "owner",
          "type": "address"
        }
      ],
      "name": "OwnableInvalidOwner",
      "type": "error"
    },
    {
      "inputs": [
        {
          "internalType": "address",
          "name": "account",
          "type": "address"
        }
      ],
      "name": "OwnableUnauthorizedAccount",
      "type": "error"
    },
    {
      "anonymous": false,
      "inputs": [
        {
          "indexed": false,
          "internalType": "uint256",
          "name": "newCost",
          "type": "uint256"
        }
      ],
      "name": "CostUpdated",
      "type": "event"
    },
    {
      "anonymous": false,
      "inputs": [
        {
          "indexed": false,
          "internalType": "uint256",
          "name": "newMaxPerWallet",
          "type": "uint256"
        }
      ],
      "name": "MaxPerWalletUpdated",
      "type": "event"
    },
    {
      "anonymous": false,
      "inputs": [
        {
          "indexed": false,
          "internalType": "uint256",
          "name": "newMaxSupply",
          "type": "uint256"
        }
      ],
      "name": "MaxSupplyUpdated",
      "type": "event"
    },
    {
      "anonymous": false,
      "inputs": [
        {
          "indexed": false,
          "internalType": "bytes32",
          "name": "newRoot",
          "type": "bytes32"
        }
      ],
      "name": "MerkleRootUpdated",
      "type": "event"
    },
    {
      "anonymous": false,
      "inputs": [
        {
          "indexed": true,
          "internalType": "address",
          "name": "previousOwner",
          "type": "address"
        },
        {
          "indexed": true,
          "internalType": "address",
          "name": "newOwner",
          "type": "address"
        }
      ],
      "name": "OwnershipTransferred",
      "type": "event"
    },
    {
      "anonymous": false,
      "inputs": [
        {
          "indexed": false,
          "internalType": "uint256",
          "name": "newEndTime",
          "type": "uint256"
        }
      ],
      "name": "WhitelistEndTimeUpdated",
      "type": "event"
    },
    {
      "inputs": [],
      "name": "cost",
      "outputs": [
        {
          "internalType": "uint256",
          "name": "",
          "type": "uint256"
        }
      ],
      "stateMutability": "view",
      "type": "function"
    },
    {
      "inputs": [],
      "name": "maxPerWallet",
      "outputs": [
        {
          "internalType": "uint256",
          "name": "",
          "type": "uint256"
        }
      ],
      "stateMutability": "view",
      "type": "function"
    },
    {
      "inputs": [],
      "name": "maxSupply",
      "outputs": [
        {
          "internalType": "uint256",
          "name": "",
          "type": "uint256"
        }
      ],
      "stateMutability": "view",
      "type": "function"
    },
    {
      "inputs": [],
      "name": "merkleRoot",
      "outputs": [
        {
          "internalType": "bytes32",
          "name": "",
          "type": "bytes32"
        }
      ],
      "stateMutability": "view",
      "type": "function"
    },
    {
      "inputs": [],
      "name": "owner",
      "outputs": [
        {
          "internalType": "address",
          "name": "",
          "type": "address"
        }
      ],
      "stateMutability": "view",
      "type": "function"
    },
    {
      "inputs": [],
      "name": "renounceOwnership",
      "outputs": [],
      "stateMutability": "nonpayable",
      "type": "function"
    },
    {
      "inputs": [
        {
          "internalType": "uint256",
          "name": "_cost",
          "type": "uint256"
        }
      ],
      "name": "setCost",
      "outputs": [],
      "stateMutability": "nonpayable",
      "type": "function"
    },
    {
      "inputs": [
        {
          "internalType": "uint256",
          "name": "_maxPerWallet",
          "type": "uint256"
        }
      ],
      "name": "setMaxPerWallet",
      "outputs": [],
      "stateMutability": "nonpayable",
      "type": "function"
    },
    {
      "inputs": [
        {
          "internalType": "uint256",
          "name": "_maxSupply",
          "type": "uint256"
        }
      ],
      "name": "setMaxSupply",
      "outputs": [],
      "stateMutability": "nonpayable",
      "type": "function"
    },
    {
      "inputs": [
        {
          "internalType": "bytes32",
          "name": "_merkleRoot",
          "type": "bytes32"
        }
      ],
      "name": "setMerkleRoot",
      "outputs": [],
      "stateMutability": "nonpayable",
      "type": "function"
    },
    {
      "inputs": [
        {
          "internalType": "uint256",
          "name": "_whitelistEndTime",
          "type": "uint256"
        }
      ],
      "name": "setWhitelistEndTime",
      "outputs": [],
      "stateMutability": "nonpayable",
      "type": "function"
    },
    {
      "inputs": [
        {
          "internalType": "address",
          "name": "newOwner",
          "type": "address"
        }
      ],
      "name": "transferOwnership",
      "outputs": [],
      "stateMutability": "nonpayable",
      "type": "function"
    },
    {
      "inputs": [],
      "name": "whitelistEndTime",
      "outputs": [
        {
          "internalType": "uint256",
          "name": "",
          "type": "uint256"
        }
      ],
      "stateMutability": "view",
      "type": "function"
    }
  ],
  "transactionHash": "0x49c132e370cb5aa7edc34411611198106939fcfc140e38512dfe8443306feb1a",
  "args": [
    "0x94337fc24282E73C298D173ecAe43B4ef2B1074d",
    "100000000000000",
    20,
    3,
    {
      "0": 234,
      "1": 157,
      "2": 76,
      "3": 59,
      "4": 142,
      "5": 166,
      "6": 255,
      "7": 48,
      "8": 198,
      "9": 241,
      "10": 166,
      "11": 236,
      "12": 151,
      "13": 47,
      "14": 105,
      "15": 197,
      "16": 40,
      "17": 200,
      "18": 34,
      "19": 107,
      "20": 112,
      "21": 116,
      "22": 128,
      "23": 161,
      "24": 202,
      "25": 242,
      "26": 18,
      "27": 219,
      "28": 213,
      "29": 144,
      "30": 61,
      "31": 58
    },
    1753295470
  ],
  "numDeployments": 2,
  "solcInputHash": "77b63beac49745143d4bd8cb7645d2a8",
  "bytecode": "0x6080346100ee57601f61058338819003918201601f19168301916001600160401b038311848410176100f35780849260c0946040528339810103126100ee5780516001600160a01b03811691908290036100ee57602081015190604081015160608201519060a060808401519301519385156100d857600080546001600160a01b031981168817825560405197916001600160a01b03909116907f8be0079c531659141344cd1fd0a4f28419497f9722a3daafe3b4186f6b6457e09080a3600155600255600355600555600455610479908161010a8239f35b631e4fbdf760e01b600052600060045260246000fd5b600080fd5b634e487b7160e01b600052604160045260246000fdfe608080604052600436101561001357600080fd5b60003560e01c90816313faede6146103e6575080632eb4a7ab146103c857806344a0d68a1461037c578063453c23101461035e5780636f8b44b014610312578063715018a6146102ac5780637cb64759146102605780638da5cb5b14610239578063b9d6ed30146101ed578063d5abeb01146101cf578063e268e4d314610183578063ebdfd722146101655763f2fde38b146100ae57600080fd5b34610160576020366003190112610160576004356001600160a01b038116809103610160576100db610401565b8015610131576001600160a01b036000548273ffffffffffffffffffffffffffffffffffffffff19821617600055167f8be0079c531659141344cd1fd0a4f28419497f9722a3daafe3b4186f6b6457e0600080a3005b7f1e4fbdf700000000000000000000000000000000000000000000000000000000600052600060045260246000fd5b600080fd5b34610160576000366003190112610160576020600454604051908152f35b34610160576020366003190112610160577f97e4f91a4b7e108aff6d29a03d7b9f94705ad90ed51b377784a1943ea32257e760206004356101c2610401565b80600355604051908152a1005b34610160576000366003190112610160576020600254604051908152f35b34610160576020366003190112610160577f1b31e74f91dc12793e1869729cb2c23835b01cf33b3188c804f4e9fdba5901f0602060043561022c610401565b80600455604051908152a1005b346101605760003660031901126101605760206001600160a01b0360005416604051908152f35b34610160576020366003190112610160577f90004c04698bc3322499a575ed3752dd4abf33e0a7294c06a787a0fe01bea941602060043561029f610401565b80600555604051908152a1005b34610160576000366003190112610160576102c5610401565b60006001600160a01b03815473ffffffffffffffffffffffffffffffffffffffff1981168355167f8be0079c531659141344cd1fd0a4f28419497f9722a3daafe3b4186f6b6457e08280a3005b34610160576020366003190112610160577f7810bd47de260c3e9ee10061cf438099dd12256c79485f12f94dbccc981e806c6020600435610351610401565b80600255604051908152a1005b34610160576000366003190112610160576020600354604051908152f35b34610160576020366003190112610160577ff8eb04e6c43013770ed5585d21a0eb9e40c228e8a53ccf549dc6cbdb8e50f67b60206004356103bb610401565b80600155604051908152a1005b34610160576000366003190112610160576020600554604051908152f35b34610160576000366003190112610160576020906001548152f35b6001600160a01b0360005416330361041557565b7f118cdaa7000000000000000000000000000000000000000000000000000000006000523360045260246000fdfea26469706673582212200c7cdb561b5a1a867fd72d334cdbb8c633fc2dfbb2469c9c9258549c4547adec64736f6c634300081c0033",
  "devdoc": {
    "errors": {
      "OwnableInvalidOwner(address)": [
        {
          "details": "The owner is not a valid owner account. (eg. `address(0)`)"
        }
      ],
      "OwnableUnauthorizedAccount(address)": [
        {
          "details": "The caller account is not authorized to perform an operation."
        }
      ]
    },
    "kind": "dev",
    "methods": {
      "owner()": {
        "details": "Returns the address of the current owner."
      },
      "renounceOwnership()": {
        "details": "Leaves the contract without owner. It will not be possible to call `onlyOwner` functions. Can only be called by the current owner. NOTE: Renouncing ownership will leave the contract without an owner, thereby disabling any functionality that is only available to the owner."
      },
      "transferOwnership(address)": {
        "details": "Transfers ownership of the contract to a new account (`newOwner`). Can only be called by the current owner."
      }
    },
    "version": 1
  },
  "userdoc": {
    "kind": "user",
    "methods": {},
    "version": 1
  },
  "storageLayout": {
    "storage": [
      {
        "astId": 8,
        "contract": "contracts/MintConfig.sol:MintConfig",
        "label": "_owner",
        "offset": 0,
        "slot": "0",
        "type": "t_address"
      },
      {
        "astId": 7720,
        "contract": "contracts/MintConfig.sol:MintConfig",
        "label": "cost",
        "offset": 0,
        "slot": "1",
        "type": "t_uint256"
      },
      {
        "astId": 7722,
        "contract": "contracts/MintConfig.sol:MintConfig",
        "label": "maxSupply",
        "offset": 0,
        "slot": "2",
        "type": "t_uint256"
      },
      {
        "astId": 7724,
        "contract": "contracts/MintConfig.sol:MintConfig",
        "label": "maxPerWallet",
        "offset": 0,
        "slot": "3",
        "type": "t_uint256"
      },
      {
        "astId": 7726,
        "contract": "contracts/MintConfig.sol:MintConfig",
        "label": "whitelistEndTime",
        "offset": 0,
        "slot": "4",
        "type": "t_uint256"
      },
      {
        "astId": 7728,
        "contract": "contracts/MintConfig.sol:MintConfig",
        "label": "merkleRoot",
        "offset": 0,
        "slot": "5",
        "type": "t_bytes32"
      }
    ],
    "types": {
      "t_address": {
        "encoding": "inplace",
        "label": "address",
        "numberOfBytes": "20"
      },
      "t_bytes32": {
        "encoding": "inplace",
        "label": "bytes32",
        "numberOfBytes": "32"
      },
      "t_uint256": {
        "encoding": "inplace",
        "label": "uint256",
        "numberOfBytes": "32"
      }
    }
  }
}