{
  "address": "0x59bA0667668C9Ac5F3C8FEE88E522554778688c3",
  "abi": [
    {
      "inputs": [
        {
          "internalType": "string",
          "name": "name",
          "type": "string"
        },
        {
          "internalType": "string",
          "name": "symbol",
          "type": "string"
        },
        {
          "internalType": "uint256",
          "name": "_cost",
          "type": "uint256"
        },
        {
          "internalType": "uint256",
          "name": "_maxSupply",
          "type": "uint256"
        },
        {
          "internalType": "uint256",
          "name": "_maxPerWallet",
          "type": "uint256"
        },
        {
          "internalType": "string",
          "name": "initialBaseURI",
          "type": "string"
        }
      ],
      "stateMutability": "nonpayable",
      "type": "constructor"
    },
    {
      "inputs": [
        {
          "internalType": "address",
          "name": "sender",
          "type": "address"
        },
        {
          "internalType": "uint256",
          "name": "tokenId",
          "type": "uint256"
        },
        {
          "internalType": "address",
          "name": "owner",
          "type": "address"
        }
      ],
      "name": "ERC721IncorrectOwner",
      "type": "error"
    },
    {
      "inputs": [
        {
          "internalType": "address",
          "name": "operator",
          "type": "address"
        },
        {
          "internalType": "uint256",
          "name": "tokenId",
          "type": "uint256"
        }
      ],
      "name": "ERC721InsufficientApproval",
      "type": "error"
    },
    {
      "inputs": [
        {
          "internalType": "address",
          "name": "approver",
          "type": "address"
        }
      ],
      "name": "ERC721InvalidApprover",
      "type": "error"
    },
    {
      "inputs": [
        {
          "internalType": "address",
          "name": "operator",
          "type": "address"
        }
      ],
      "name": "ERC721InvalidOperator",
      "type": "error"
    },
    {
      "inputs": [
        {
          "internalType": "address",
          "name": "owner",
          "type": "address"
        }
      ],
      "name": "ERC721InvalidOwner",
      "type": "error"
    },
    {
      "inputs": [
        {
          "internalType": "address",
          "name": "receiver",
          "type": "address"
        }
      ],
      "name": "ERC721InvalidReceiver",
      "type": "error"
    },
    {
      "inputs": [
        {
          "internalType": "address",
          "name": "sender",
          "type": "address"
        }
      ],
      "name": "ERC721InvalidSender",
      "type": "error"
    },
    {
      "inputs": [
        {
          "internalType": "uint256",
          "name": "tokenId",
          "type": "uint256"
        }
      ],
      "name": "ERC721NonexistentToken",
      "type": "error"
    },
    {
      "inputs": [
        {
          "internalType": "address",
          "name": "owner",
          "type": "address"
        }
      ],
      "name": "OwnableInvalidOwner",
      "type": "error"
    },
    {
      "inputs": [
        {
          "internalType": "address",
          "name": "account",
          "type": "address"
        }
      ],
      "name": "OwnableUnauthorizedAccount",
      "type": "error"
    },
    {
      "anonymous": false,
      "inputs": [
        {
          "indexed": true,
          "internalType": "address",
          "name": "user",
          "type": "address"
        }
      ],
      "name": "AddedToWhitelist",
      "type": "event"
    },
    {
      "anonymous": false,
      "inputs": [
        {
          "indexed": true,
          "internalType": "address",
          "name": "owner",
          "type": "address"
        },
        {
          "indexed": true,
          "internalType": "address",
          "name": "approved",
          "type": "address"
        },
        {
          "indexed": true,
          "internalType": "uint256",
          "name": "tokenId",
          "type": "uint256"
        }
      ],
      "name": "Approval",
      "type": "event"
    },
    {
      "anonymous": false,
      "inputs": [
        {
          "indexed": true,
          "internalType": "address",
          "name": "owner",
          "type": "address"
        },
        {
          "indexed": true,
          "internalType": "address",
          "name": "operator",
          "type": "address"
        },
        {
          "indexed": false,
          "internalType": "bool",
          "name": "approved",
          "type": "bool"
        }
      ],
      "name": "ApprovalForAll",
      "type": "event"
    },
    {
      "anonymous": false,
      "inputs": [
        {
          "indexed": false,
          "internalType": "string",
          "name": "newBaseURI",
          "type": "string"
        }
      ],
      "name": "BaseURIUpdated",
      "type": "event"
    },
    {
      "anonymous": false,
      "inputs": [
        {
          "indexed": false,
          "internalType": "uint256",
          "name": "newCost",
          "type": "uint256"
        }
      ],
      "name": "CostUpdated",
      "type": "event"
    },
    {
      "anonymous": false,
      "inputs": [
        {
          "indexed": false,
          "internalType": "uint256",
          "name": "newMaxPerWallet",
          "type": "uint256"
        }
      ],
      "name": "MaxPerWalletUpdated",
      "type": "event"
    },
    {
      "anonymous": false,
      "inputs": [
        {
          "indexed": false,
          "internalType": "uint256",
          "name": "newMaxSupply",
          "type": "uint256"
        }
      ],
      "name": "MaxSupplyUpdated",
      "type": "event"
    },
    {
      "anonymous": false,
      "inputs": [
        {
          "indexed": true,
          "internalType": "address",
          "name": "user",
          "type": "address"
        },
        {
          "indexed": false,
          "internalType": "uint256",
          "name": "amount",
          "type": "uint256"
        }
      ],
      "name": "Minted",
      "type": "event"
    },
    {
      "anonymous": false,
      "inputs": [
        {
          "indexed": true,
          "internalType": "address",
          "name": "previousOwner",
          "type": "address"
        },
        {
          "indexed": true,
          "internalType": "address",
          "name": "newOwner",
          "type": "address"
        }
      ],
      "name": "OwnershipTransferred",
      "type": "event"
    },
    {
      "anonymous": false,
      "inputs": [
        {
          "indexed": true,
          "internalType": "address",
          "name": "user",
          "type": "address"
        }
      ],
      "name": "RemovedFromWhitelist",
      "type": "event"
    },
    {
      "anonymous": false,
      "inputs": [
        {
          "indexed": true,
          "internalType": "address",
          "name": "from",
          "type": "address"
        },
        {
          "indexed": true,
          "internalType": "address",
          "name": "to",
          "type": "address"
        },
        {
          "indexed": true,
          "internalType": "uint256",
          "name": "tokenId",
          "type": "uint256"
        }
      ],
      "name": "Transfer",
      "type": "event"
    },
    {
      "anonymous": false,
      "inputs": [
        {
          "indexed": false,
          "internalType": "uint256",
          "name": "amount",
          "type": "uint256"
        }
      ],
      "name": "Withdrawn",
      "type": "event"
    },
    {
      "inputs": [
        {
          "internalType": "address",
          "name": "user",
          "type": "address"
        }
      ],
      "name": "addToWhitelist",
      "outputs": [],
      "stateMutability": "nonpayable",
      "type": "function"
    },
    {
      "inputs": [
        {
          "internalType": "address",
          "name": "to",
          "type": "address"
        },
        {
          "internalType": "uint256",
          "name": "tokenId",
          "type": "uint256"
        }
      ],
      "name": "approve",
      "outputs": [],
      "stateMutability": "nonpayable",
      "type": "function"
    },
    {
      "inputs": [
        {
          "internalType": "address",
          "name": "owner",
          "type": "address"
        }
      ],
      "name": "balanceOf",
      "outputs": [
        {
          "internalType": "uint256",
          "name": "",
          "type": "uint256"
        }
      ],
      "stateMutability": "view",
      "type": "function"
    },
    {
      "inputs": [],
      "name": "baseURI",
      "outputs": [
        {
          "internalType": "string",
          "name": "",
          "type": "string"
        }
      ],
      "stateMutability": "view",
      "type": "function"
    },
    {
      "inputs": [],
      "name": "cost",
      "outputs": [
        {
          "internalType": "uint256",
          "name": "",
          "type": "uint256"
        }
      ],
      "stateMutability": "view",
      "type": "function"
    },
    {
      "inputs": [
        {
          "internalType": "uint256",
          "name": "tokenId",
          "type": "uint256"
        }
      ],
      "name": "getApproved",
      "outputs": [
        {
          "internalType": "address",
          "name": "",
          "type": "address"
        }
      ],
      "stateMutability": "view",
      "type": "function"
    },
    {
      "inputs": [
        {
          "internalType": "address",
          "name": "owner",
          "type": "address"
        },
        {
          "internalType": "address",
          "name": "operator",
          "type": "address"
        }
      ],
      "name": "isApprovedForAll",
      "outputs": [
        {
          "internalType": "bool",
          "name": "",
          "type": "bool"
        }
      ],
      "stateMutability": "view",
      "type": "function"
    },
    {
      "inputs": [],
      "name": "maxPerWallet",
      "outputs": [
        {
          "internalType": "uint256",
          "name": "",
          "type": "uint256"
        }
      ],
      "stateMutability": "view",
      "type": "function"
    },
    {
      "inputs": [],
      "name": "maxSupply",
      "outputs": [
        {
          "internalType": "uint256",
          "name": "",
          "type": "uint256"
        }
      ],
      "stateMutability": "view",
      "type": "function"
    },
    {
      "inputs": [
        {
          "internalType": "uint256",
          "name": "amount",
          "type": "uint256"
        }
      ],
      "name": "mint",
      "outputs": [],
      "stateMutability": "payable",
      "type": "function"
    },
    {
      "inputs": [
        {
          "internalType": "address",
          "name": "",
          "type": "address"
        }
      ],
      "name": "mintedPerWallet",
      "outputs": [
        {
          "internalType": "uint256",
          "name": "",
          "type": "uint256"
        }
      ],
      "stateMutability": "view",
      "type": "function"
    },
    {
      "inputs": [],
      "name": "name",
      "outputs": [
        {
          "internalType": "string",
          "name": "",
          "type": "string"
        }
      ],
      "stateMutability": "view",
      "type": "function"
    },
    {
      "inputs": [],
      "name": "owner",
      "outputs": [
        {
          "internalType": "address",
          "name": "",
          "type": "address"
        }
      ],
      "stateMutability": "view",
      "type": "function"
    },
    {
      "inputs": [
        {
          "internalType": "uint256",
          "name": "tokenId",
          "type": "uint256"
        }
      ],
      "name": "ownerOf",
      "outputs": [
        {
          "internalType": "address",
          "name": "",
          "type": "address"
        }
      ],
      "stateMutability": "view",
      "type": "function"
    },
    {
      "inputs": [
        {
          "internalType": "address",
          "name": "user",
          "type": "address"
        }
      ],
      "name": "removeFromWhitelist",
      "outputs": [],
      "stateMutability": "nonpayable",
      "type": "function"
    },
    {
      "inputs": [],
      "name": "renounceOwnership",
      "outputs": [],
      "stateMutability": "nonpayable",
      "type": "function"
    },
    {
      "inputs": [
        {
          "internalType": "address",
          "name": "from",
          "type": "address"
        },
        {
          "internalType": "address",
          "name": "to",
          "type": "address"
        },
        {
          "internalType": "uint256",
          "name": "tokenId",
          "type": "uint256"
        }
      ],
      "name": "safeTransferFrom",
      "outputs": [],
      "stateMutability": "nonpayable",
      "type": "function"
    },
    {
      "inputs": [
        {
          "internalType": "address",
          "name": "from",
          "type": "address"
        },
        {
          "internalType": "address",
          "name": "to",
          "type": "address"
        },
        {
          "internalType": "uint256",
          "name": "tokenId",
          "type": "uint256"
        },
        {
          "internalType": "bytes",
          "name": "data",
          "type": "bytes"
        }
      ],
      "name": "safeTransferFrom",
      "outputs": [],
      "stateMutability": "nonpayable",
      "type": "function"
    },
    {
      "inputs": [
        {
          "internalType": "address",
          "name": "operator",
          "type": "address"
        },
        {
          "internalType": "bool",
          "name": "approved",
          "type": "bool"
        }
      ],
      "name": "setApprovalForAll",
      "outputs": [],
      "stateMutability": "nonpayable",
      "type": "function"
    },
    {
      "inputs": [
        {
          "internalType": "string",
          "name": "_newBaseURI",
          "type": "string"
        }
      ],
      "name": "setBaseURI",
      "outputs": [],
      "stateMutability": "nonpayable",
      "type": "function"
    },
    {
      "inputs": [
        {
          "internalType": "uint256",
          "name": "_cost",
          "type": "uint256"
        }
      ],
      "name": "setCost",
      "outputs": [],
      "stateMutability": "nonpayable",
      "type": "function"
    },
    {
      "inputs": [
        {
          "internalType": "uint256",
          "name": "_maxPerWallet",
          "type": "uint256"
        }
      ],
      "name": "setMaxPerWallet",
      "outputs": [],
      "stateMutability": "nonpayable",
      "type": "function"
    },
    {
      "inputs": [
        {
          "internalType": "uint256",
          "name": "_maxSupply",
          "type": "uint256"
        }
      ],
      "name": "setMaxSupply",
      "outputs": [],
      "stateMutability": "nonpayable",
      "type": "function"
    },
    {
      "inputs": [
        {
          "internalType": "bytes4",
          "name": "interfaceId",
          "type": "bytes4"
        }
      ],
      "name": "supportsInterface",
      "outputs": [
        {
          "internalType": "bool",
          "name": "",
          "type": "bool"
        }
      ],
      "stateMutability": "view",
      "type": "function"
    },
    {
      "inputs": [],
      "name": "symbol",
      "outputs": [
        {
          "internalType": "string",
          "name": "",
          "type": "string"
        }
      ],
      "stateMutability": "view",
      "type": "function"
    },
    {
      "inputs": [
        {
          "internalType": "uint256",
          "name": "tokenId",
          "type": "uint256"
        }
      ],
      "name": "tokenURI",
      "outputs": [
        {
          "internalType": "string",
          "name": "",
          "type": "string"
        }
      ],
      "stateMutability": "view",
      "type": "function"
    },
    {
      "inputs": [],
      "name": "totalSupply",
      "outputs": [
        {
          "internalType": "uint256",
          "name": "",
          "type": "uint256"
        }
      ],
      "stateMutability": "view",
      "type": "function"
    },
    {
      "inputs": [
        {
          "internalType": "address",
          "name": "from",
          "type": "address"
        },
        {
          "internalType": "address",
          "name": "to",
          "type": "address"
        },
        {
          "internalType": "uint256",
          "name": "tokenId",
          "type": "uint256"
        }
      ],
      "name": "transferFrom",
      "outputs": [],
      "stateMutability": "nonpayable",
      "type": "function"
    },
    {
      "inputs": [
        {
          "internalType": "address",
          "name": "newOwner",
          "type": "address"
        }
      ],
      "name": "transferOwnership",
      "outputs": [],
      "stateMutability": "nonpayable",
      "type": "function"
    },
    {
      "inputs": [
        {
          "internalType": "address",
          "name": "",
          "type": "address"
        }
      ],
      "name": "whitelisted",
      "outputs": [
        {
          "internalType": "bool",
          "name": "",
          "type": "bool"
        }
      ],
      "stateMutability": "view",
      "type": "function"
    },
    {
      "inputs": [],
      "name": "withdraw",
      "outputs": [],
      "stateMutability": "nonpayable",
      "type": "function"
    }
  ],
  "transactionHash": "0xd336d54eae6f7685149664b8b36aca93639e1ee9b55167618b9e04693d4ce657",
  "args": [
    "Whitelist_NFT",
    "WLNFT",
    "100000000000000",
    20,
    3,
    "https://687144367ca4d06b34b9e592.mockapi.io/metadata/"
  ],
  "numDeployments": 2,
  "solcInputHash": "49fe81c541d66e94838a28d7cebb0d9f",
  "bytecode": "0x60806040523461051d576120d88038038061001981610522565b928339810160c08282031261051d5781516001600160401b03811161051d5781610044918401610547565b60208301519092906001600160401b03811161051d5782610066918301610547565b60408201519060608301519260808101519460a082015160018060401b03811161051d576100949201610547565b855190956001600160401b03821161031a5760005490600182811c92168015610513575b60208310146102fa5781601f8493116104a4575b50602090601f831160011461043e57600092610433575b50508160011b916000199060031b1c1916176000555b8051906001600160401b03821161031a5760015490600182811c92168015610429575b60208310146102fa5781601f8493116103b9575b50602090601f831160011461035157600092610346575b50508160011b916000199060031b1c1916176001555b33156103305760068054336001600160a01b0319821681179092556001600160a01b03167f8be0079c531659141344cd1fd0a4f28419497f9722a3daafe3b4186f6b6457e0600080a360075560085560095580516001600160401b03811161031a57600b54600181811c91168015610310575b60208210146102fa57601f8111610295575b50602091601f821160011461023157918192600092610226575b50508160011b916000199060031b1c191617600b555b6000600a55604051611b2590816105b38239f35b0151905038806101fc565b601f19821692600b600052806000209160005b85811061027d57508360019510610264575b505050811b01600b55610212565b015160001960f88460031b161c19169055388080610256565b91926020600181928685015181550194019201610244565b600b6000527f0175b7a638427703f0dbe7bb9bbf987a2551717b34e79f33b5b1008d1fa01db9601f830160051c810191602084106102f0575b601f0160051c01905b8181106102e457506101e2565b600081556001016102d7565b90915081906102ce565b634e487b7160e01b600052602260045260246000fd5b90607f16906101d0565b634e487b7160e01b600052604160045260246000fd5b631e4fbdf760e01b600052600060045260246000fd5b015190503880610147565b600160009081528281209350601f198516905b8181106103a15750908460019594939210610388575b505050811b0160015561015d565b015160001960f88460031b161c1916905538808061037a565b92936020600181928786015181550195019301610364565b60016000529091507fb10e2d527612073b26eecdfd717e6a320cf44b4afac2b0732d9fcbe2b7fa0cf6601f840160051c8101916020851061041f575b90601f859493920160051c01905b8181106104105750610130565b60008155849350600101610403565b90915081906103f5565b91607f169161011c565b0151905038806100e3565b60008080528281209350601f198516905b81811061048c5750908460019594939210610473575b505050811b016000556100f9565b015160001960f88460031b161c19169055388080610465565b9293602060018192878601518155019501930161044f565b600080529091507f290decd9548b62a8d60345a988386fc84ba6bc95484008f6362f93160ef3e563601f840160051c81019160208510610509575b90601f859493920160051c01905b8181106104fa57506100cc565b600081558493506001016104ed565b90915081906104df565b91607f16916100b8565b600080fd5b6040519190601f01601f191682016001600160401b0381118382101761031a57604052565b81601f8201121561051d578051906001600160401b03821161031a57610576601f8301601f1916602001610522565b928284526020838301011161051d5760005b82811061059d57505060206000918301015290565b8060208092840101518282870101520161058856fe608080604052600436101561001357600080fd5b60003560e01c90816301ffc9a7146114915750806306fdde03146113ec578063081812fc146113ad578063095ea7b31461129e57806313faede61461128057806318160ddd1461126257806323b872dd1461124b5780633a602b4d146112115780633ccfd60b1461119557806342842e0e1461116557806344a0d68a14611119578063453c2310146110fb57806355f804b314610eb55780636352211e14610e865780636c0360eb14610e6a5780636f8b44b014610dab57806370a0823114610d3c578063715018a614610ce15780638ab1d68114610c7a5780638da5cb5b14610c5357806395d89b4114610b86578063a0712d68146106e6578063a22cb4651461062c578063b88d4fde146105be578063c87b56dd1461038b578063d5abeb011461036d578063d936547e1461032e578063e268e4d3146102e2578063e43252d714610278578063e985e9c51461021b5763f2fde38b1461017457600080fd5b34610216576020366003190112610216576001600160a01b03610195611590565b61019d611970565b1680156101e7576001600160a01b03600654826001600160a01b0319821617600655167f8be0079c531659141344cd1fd0a4f28419497f9722a3daafe3b4186f6b6457e0600080a3005b7f1e4fbdf700000000000000000000000000000000000000000000000000000000600052600060045260246000fd5b600080fd5b3461021657604036600319011261021657610234611590565b6001600160a01b036102446115a6565b911660005260056020526001600160a01b0360406000209116600052602052602060ff604060002054166040519015158152f35b34610216576020366003190112610216576001600160a01b03610299611590565b6102a1611970565b1680600052600c6020526040600020600160ff198254161790557fa850ae9193f515cbae8d35e8925bd2be26627fc91bce650b8652ed254e9cab03600080a2005b34610216576020366003190112610216577f97e4f91a4b7e108aff6d29a03d7b9f94705ad90ed51b377784a1943ea32257e76020600435610321611970565b80600955604051908152a1005b34610216576020366003190112610216576001600160a01b0361034f611590565b16600052600c602052602060ff604060002054166040519015158152f35b34610216576000366003190112610216576020600854604051908152f35b34610216576020366003190112610216576004356103a881611939565b506103b16116a5565b8051909190600090156105a25750600081807a184f03e93ff9f4daa797ed6e38ed64bf6a1f010000000000000000811015610577575b50806d04ee2d6d415b85acef8100000000600a92101561055c575b662386f26fc10000811015610548575b6305f5e100811015610537575b612710811015610528575b606481101561051a575b1015610512575b6001810191600a602161046661045086611618565b9561045e60405197886115f6565b808752611618565b602086019490601f19013686378501015b60001901917f30313233343536373839616263646566000000000000000000000000000000008282061a8353049081156104b357600a90610477565b505061050e9260206104fa926104ea9460405195846104db889651809287808a019101611548565b85019151809385840190611548565b010103601f1981018352826115f6565b60405191829160208352602083019061156b565b0390f35b60010161043b565b606460029104920191610434565b6127106004910492019161042a565b6305f5e1006008910492019161041f565b662386f26fc1000060109104920191610412565b6d04ee2d6d415b85acef810000000060209104920191610402565b604092507a184f03e93ff9f4daa797ed6e38ed64bf6a1f01000000000000000090049050600a6103e7565b60405161050e935091506105b76020836115f6565b81526104fa565b34610216576080366003190112610216576105d7611590565b6105df6115a6565b906044356064359267ffffffffffffffff841161021657366023850112156102165761061861062a943690602481600401359101611634565b9261062483838361175e565b336119b2565b005b3461021657604036600319011261021657610645611590565b60243590811515809203610216576001600160a01b03169081156106b857336000526005602052604060002082600052602052604060002060ff1981541660ff83161790556040519081527f17307eab39ab6107e8899845ad3d59bd9653f200f220920489ca2b5937696c3160203392a3005b507f5b08ba180000000000000000000000000000000000000000000000000000000060005260045260246000fd5b60203660031901126102165760043533600052600c60205260ff6040600020541615610b42578015610afe5761071e81600a5461192c565b60085410610aba5733600052600d60205261073e8160406000205461192c565b60095410610a765760075481810290808204831490151715610a1c573410610a3257602033801580159160005b8581106107ba57857f30385c845b448a36257a6a1716e6ad2e1bc2cbe333cde1e69fe849ad6511adfe8633600052600d815260406000206107ad84825461192c565b90556040519283523392a2005b600a546000198114610a1c576001019081600a556040516107db87826115f6565b8460008252610a065785600084815260028952846001600160a01b036040832054169182151593846109cb575b6109b4575b81815260028b5260408120886001600160a01b0319825416179055827fddf252ad1be2c89b69c2b068fc378daa952ba7f163c4a11628f55a4df523b3ef339280a450610985578690333b610868575b5050600191500161076b565b6108a292936040519384928392630a85bd0160e11b845233600485015260006024850152604484015260806064840152608483019061156b565b03816000335af18091600091610940575b509061090957853d15610902573d6108ca81611618565b906108d860405192836115f6565b81523d60008383013e5b805191826108ff57633250574960e11b6000523360045260246000fd5b01fd5b60606108e2565b6001600160e01b0319630a85bd0160e11b91160361092b57600190858861085c565b633250574960e11b6000523360045260246000fd5b8781813d831161097e575b61095581836115f6565b8101031261097a5751906001600160e01b0319821682036109775750886108b3565b80fd5b5080fd5b503d61094b565b7f73c6ac6e00000000000000000000000000000000000000000000000000000000600052600060045260246000fd5b33815260038b52604081206001815401905561080d565b506109ed82600052600460205260406000206001600160a01b03198154169055565b82815260038b5260408120805460001901905589610808565b633250574960e11b600052600060045260246000fd5b634e487b7160e01b600052601160045260246000fd5b606460405162461bcd60e51b815260206004820152601060248201527f496e73756666696369656e7420455448000000000000000000000000000000006044820152fd5b606460405162461bcd60e51b815260206004820152601660248201527f45786365656473206d6178207065722077616c6c6574000000000000000000006044820152fd5b606460405162461bcd60e51b815260206004820152601260248201527f45786365656473206d617820737570706c7900000000000000000000000000006044820152fd5b606460405162461bcd60e51b815260206004820152601d60248201527f416d6f756e74206d7573742062652067726561746572207468616e20300000006044820152fd5b606460405162461bcd60e51b815260206004820152600f60248201527f4e6f742077686974656c697374656400000000000000000000000000000000006044820152fd5b34610216576000366003190112610216576040516000600154610ba88161166b565b8084529060018116908115610c2f5750600114610bd0575b61050e836104fa818503826115f6565b600160009081527fb10e2d527612073b26eecdfd717e6a320cf44b4afac2b0732d9fcbe2b7fa0cf6939250905b808210610c15575090915081016020016104fa610bc0565b919260018160209254838588010152019101909291610bfd565b60ff191660208086019190915291151560051b840190910191506104fa9050610bc0565b346102165760003660031901126102165760206001600160a01b0360065416604051908152f35b34610216576020366003190112610216576001600160a01b03610c9b611590565b610ca3611970565b1680600052600c602052604060002060ff1981541690557fcdd2e9b91a56913d370075169cefa1602ba36be5301664f752192bb1709df757600080a2005b3461021657600036600319011261021657610cfa611970565b60006001600160a01b036006546001600160a01b03198116600655167f8be0079c531659141344cd1fd0a4f28419497f9722a3daafe3b4186f6b6457e08280a3005b34610216576020366003190112610216576001600160a01b03610d5d611590565b168015610d7c5760005260036020526020604060002054604051908152f35b7f89c62b6400000000000000000000000000000000000000000000000000000000600052600060045260246000fd5b3461021657602036600319011261021657600435610dc7611970565b600a548110610e01576020817f7810bd47de260c3e9ee10061cf438099dd12256c79485f12f94dbccc981e806c92600855604051908152a1005b608460405162461bcd60e51b8152602060048201526024808201527f43616e6e6f7420736574206c6f776572207468616e2063757272656e7420737560448201527f70706c79000000000000000000000000000000000000000000000000000000006064820152fd5b346102165760003660031901126102165761050e6104fa6116a5565b34610216576020366003190112610216576020610ea4600435611939565b6001600160a01b0360405191168152f35b346102165760203660031901126102165760043567ffffffffffffffff8111610216573660238201121561021657610ef7903690602481600401359101611634565b610eff611970565b805167ffffffffffffffff81116110e557610f1b600b5461166b565b601f8111611042575b506020601f8211600114610f9a579181610f8a927f6741b2fc379fad678116fe3d4d4b9a1a184ab53ba36b86ad0fa66340b1ab41ad94600091610f8f575b508160011b916000199060031b1c191617600b5560405191829160208352602083019061156b565b0390a1005b905082015185610f62565b601f19821690600b6000527f0175b7a638427703f0dbe7bb9bbf987a2551717b34e79f33b5b1008d1fa01db99160005b81811061102a5750927f6741b2fc379fad678116fe3d4d4b9a1a184ab53ba36b86ad0fa66340b1ab41ad949260019282610f8a9610611011575b5050811b01600b556104fa565b84015160001960f88460031b161c191690558580611004565b91926020600181928689015181550194019201610fca565b600b600052601f820160051c7f0175b7a638427703f0dbe7bb9bbf987a2551717b34e79f33b5b1008d1fa01db90190602083106110bd575b601f0160051c7f0175b7a638427703f0dbe7bb9bbf987a2551717b34e79f33b5b1008d1fa01db901905b8181106110b15750610f24565b600081556001016110a4565b7f0175b7a638427703f0dbe7bb9bbf987a2551717b34e79f33b5b1008d1fa01db9915061107a565b634e487b7160e01b600052604160045260246000fd5b34610216576000366003190112610216576020600954604051908152f35b34610216576020366003190112610216577ff8eb04e6c43013770ed5585d21a0eb9e40c228e8a53ccf549dc6cbdb8e50f67b6020600435611158611970565b80600755604051908152a1005b346102165761062a611176366115bc565b90604051926111866020856115f6565b6000845261062483838361175e565b34610216576000366003190112610216576111ae611970565b476000808080846001600160a01b0360065416828215611208575bf1156111fc5760207f430648de173157e069201c943adb2d4e340e7cf5b27b1b09c9cb852f03d63b5691604051908152a1005b6040513d6000823e3d90fd5b506108fc6111c9565b34610216576020366003190112610216576001600160a01b03611232611590565b16600052600d6020526020604060002054604051908152f35b346102165761062a61125c366115bc565b9161175e565b34610216576000366003190112610216576020600a54604051908152f35b34610216576000366003190112610216576020600754604051908152f35b34610216576040366003190112610216576112b7611590565b6024356112c381611939565b3315158061139a575b80611363575b6113355781906001600160a01b0380851691167f8c5be1e5ebec7d5bd14f71427d1e84f3dd0314c0f7b2291e5b200ac8c7c3b925600080a460005260046020526001600160a01b03604060002091166001600160a01b0319825416179055600080f35b7fa9fbf51f000000000000000000000000000000000000000000000000000000006000523360045260246000fd5b506001600160a01b038116600052600560205260406000206001600160a01b03331660005260205260ff60406000205416156112d2565b50336001600160a01b03821614156112cc565b34610216576020366003190112610216576004356113ca81611939565b50600052600460205260206001600160a01b0360406000205416604051908152f35b34610216576000366003190112610216576040516000805461140d8161166b565b8084529060018116908115610c2f57506001146114345761050e836104fa818503826115f6565b60008080527f290decd9548b62a8d60345a988386fc84ba6bc95484008f6362f93160ef3e563939250905b808210611477575090915081016020016104fa610bc0565b91926001816020925483858801015201910190929161145f565b3461021657602036600319011261021657600435906001600160e01b0319821680920361021657817f80ac58cd000000000000000000000000000000000000000000000000000000006020931490811561151e575b81156114f4575b5015158152f35b7f01ffc9a700000000000000000000000000000000000000000000000000000000915014836114ed565b7f5b5e139f00000000000000000000000000000000000000000000000000000000811491506114e6565b60005b83811061155b5750506000910152565b818101518382015260200161154b565b9060209161158481518092818552858086019101611548565b601f01601f1916010190565b600435906001600160a01b038216820361021657565b602435906001600160a01b038216820361021657565b6060906003190112610216576004356001600160a01b038116810361021657906024356001600160a01b0381168103610216579060443590565b90601f8019910116810190811067ffffffffffffffff8211176110e557604052565b67ffffffffffffffff81116110e557601f01601f191660200190565b92919261164082611618565b9161164e60405193846115f6565b829481845281830111610216578281602093846000960137010152565b90600182811c9216801561169b575b602083101461168557565b634e487b7160e01b600052602260045260246000fd5b91607f169161167a565b60405190600082600b54916116b98361166b565b808352926001811690811561173f57506001146116df575b6116dd925003836115f6565b565b50600b600090815290917f0175b7a638427703f0dbe7bb9bbf987a2551717b34e79f33b5b1008d1fa01db95b8183106117235750509060206116dd928201016116d1565b602091935080600191548385890101520191019091849261170b565b602092506116dd94915060ff191682840152151560051b8201016116d1565b91906001600160a01b0316918215610a06576000908282526002602052826001600160a01b03604084205416948533151580611871575b507fddf252ad1be2c89b69c2b068fc378daa952ba7f163c4a11628f55a4df523b3ef6001600160a01b039582611837575b83815260036020526040812060018154019055848152600260205260408120846001600160a01b031982541617905580a41680830361180457505050565b7f64283d7b0000000000000000000000000000000000000000000000000000000060005260045260245260445260646000fd5b61185885600052600460205260406000206001600160a01b03198154169055565b82815260036020526040812080546000190190556117c6565b919394925050806118d5575b1561188d57919083908538611795565b8390856118a657602491637e27328960e01b8252600452fd5b6044917f177e802f00000000000000000000000000000000000000000000000000000000825233600452602452fd5b503385148015611903575b8061187d57508381526004602052336001600160a01b036040832054161461187d565b508481526005602052604081206001600160a01b033316825260205260ff6040822054166118e0565b91908201809211610a1c57565b8060005260026020526001600160a01b036040600020541690811561195c575090565b637e27328960e01b60005260045260246000fd5b6001600160a01b0360065416330361198457565b7f118cdaa7000000000000000000000000000000000000000000000000000000006000523360045260246000fd5b93909293823b6119c4575b5050505050565b611a0b6001600160a01b0392836020951696846040519788968796630a85bd0160e11b8852166004870152166024850152604484015260806064840152608483019061156b565b03816000865af18091600091611aac575b5090611a7557503d15611a6e573d611a3381611618565b90611a4160405192836115f6565b81523d6000602083013e5b80519081611a695782633250574960e11b60005260045260246000fd5b602001fd5b6060611a4c565b6001600160e01b0319630a85bd0160e11b911603611a98575038808080806119bd565b633250574960e11b60005260045260246000fd5b6020813d602011611ae7575b81611ac5602093836115f6565b8101031261097a5751906001600160e01b031982168203610977575038611a1c565b3d9150611ab856fea2646970667358221220994e10d3e6ce5f497bfed3c73bbe1c75427a1d83cf17cb4cc13797721ab240af64736f6c634300081c0033",
  "devdoc": {
    "errors": {
      "ERC721IncorrectOwner(address,uint256,address)": [
        {
          "details": "Indicates an error related to the ownership over a particular token. Used in transfers.",
          "params": {
            "owner": "Address of the current owner of a token.",
            "sender": "Address whose tokens are being transferred.",
            "tokenId": "Identifier number of a token."
          }
        }
      ],
      "ERC721InsufficientApproval(address,uint256)": [
        {
          "details": "Indicates a failure with the `operator`s approval. Used in transfers.",
          "params": {
            "operator": "Address that may be allowed to operate on tokens without being their owner.",
            "tokenId": "Identifier number of a token."
          }
        }
      ],
      "ERC721InvalidApprover(address)": [
        {
          "details": "Indicates a failure with the `approver` of a token to be approved. Used in approvals.",
          "params": {
            "approver": "Address initiating an approval operation."
          }
        }
      ],
      "ERC721InvalidOperator(address)": [
        {
          "details": "Indicates a failure with the `operator` to be approved. Used in approvals.",
          "params": {
            "operator": "Address that may be allowed to operate on tokens without being their owner."
          }
        }
      ],
      "ERC721InvalidOwner(address)": [
        {
          "details": "Indicates that an address can't be an owner. For example, `address(0)` is a forbidden owner in ERC-20. Used in balance queries.",
          "params": {
            "owner": "Address of the current owner of a token."
          }
        }
      ],
      "ERC721InvalidReceiver(address)": [
        {
          "details": "Indicates a failure with the token `receiver`. Used in transfers.",
          "params": {
            "receiver": "Address to which tokens are being transferred."
          }
        }
      ],
      "ERC721InvalidSender(address)": [
        {
          "details": "Indicates a failure with the token `sender`. Used in transfers.",
          "params": {
            "sender": "Address whose tokens are being transferred."
          }
        }
      ],
      "ERC721NonexistentToken(uint256)": [
        {
          "details": "Indicates a `tokenId` whose `owner` is the zero address.",
          "params": {
            "tokenId": "Identifier number of a token."
          }
        }
      ],
      "OwnableInvalidOwner(address)": [
        {
          "details": "The owner is not a valid owner account. (eg. `address(0)`)"
        }
      ],
      "OwnableUnauthorizedAccount(address)": [
        {
          "details": "The caller account is not authorized to perform an operation."
        }
      ]
    },
    "events": {
      "Approval(address,address,uint256)": {
        "details": "Emitted when `owner` enables `approved` to manage the `tokenId` token."
      },
      "ApprovalForAll(address,address,bool)": {
        "details": "Emitted when `owner` enables or disables (`approved`) `operator` to manage all of its assets."
      },
      "Transfer(address,address,uint256)": {
        "details": "Emitted when `tokenId` token is transferred from `from` to `to`."
      }
    },
    "kind": "dev",
    "methods": {
      "approve(address,uint256)": {
        "details": "See {IERC721-approve}."
      },
      "balanceOf(address)": {
        "details": "See {IERC721-balanceOf}."
      },
      "getApproved(uint256)": {
        "details": "See {IERC721-getApproved}."
      },
      "isApprovedForAll(address,address)": {
        "details": "See {IERC721-isApprovedForAll}."
      },
      "name()": {
        "details": "See {IERC721Metadata-name}."
      },
      "owner()": {
        "details": "Returns the address of the current owner."
      },
      "ownerOf(uint256)": {
        "details": "See {IERC721-ownerOf}."
      },
      "renounceOwnership()": {
        "details": "Leaves the contract without owner. It will not be possible to call `onlyOwner` functions. Can only be called by the current owner. NOTE: Renouncing ownership will leave the contract without an owner, thereby disabling any functionality that is only available to the owner."
      },
      "safeTransferFrom(address,address,uint256)": {
        "details": "See {IERC721-safeTransferFrom}."
      },
      "safeTransferFrom(address,address,uint256,bytes)": {
        "details": "See {IERC721-safeTransferFrom}."
      },
      "setApprovalForAll(address,bool)": {
        "details": "See {IERC721-setApprovalForAll}."
      },
      "supportsInterface(bytes4)": {
        "details": "See {IERC165-supportsInterface}."
      },
      "symbol()": {
        "details": "See {IERC721Metadata-symbol}."
      },
      "tokenURI(uint256)": {
        "details": "See {IERC721Metadata-tokenURI}."
      },
      "transferFrom(address,address,uint256)": {
        "details": "See {IERC721-transferFrom}."
      },
      "transferOwnership(address)": {
        "details": "Transfers ownership of the contract to a new account (`newOwner`). Can only be called by the current owner."
      }
    },
    "version": 1
  },
  "userdoc": {
    "kind": "user",
    "methods": {},
    "version": 1
  },
  "storageLayout": {
    "storage": [
      {
        "astId": 317,
        "contract": "contracts/NFTWhitelist.sol:NFTWhitelist",
        "label": "_name",
        "offset": 0,
        "slot": "0",
        "type": "t_string_storage"
      },
      {
        "astId": 319,
        "contract": "contracts/NFTWhitelist.sol:NFTWhitelist",
        "label": "_symbol",
        "offset": 0,
        "slot": "1",
        "type": "t_string_storage"
      },
      {
        "astId": 323,
        "contract": "contracts/NFTWhitelist.sol:NFTWhitelist",
        "label": "_owners",
        "offset": 0,
        "slot": "2",
        "type": "t_mapping(t_uint256,t_address)"
      },
      {
        "astId": 327,
        "contract": "contracts/NFTWhitelist.sol:NFTWhitelist",
        "label": "_balances",
        "offset": 0,
        "slot": "3",
        "type": "t_mapping(t_address,t_uint256)"
      },
      {
        "astId": 331,
        "contract": "contracts/NFTWhitelist.sol:NFTWhitelist",
        "label": "_tokenApprovals",
        "offset": 0,
        "slot": "4",
        "type": "t_mapping(t_uint256,t_address)"
      },
      {
        "astId": 337,
        "contract": "contracts/NFTWhitelist.sol:NFTWhitelist",
        "label": "_operatorApprovals",
        "offset": 0,
        "slot": "5",
        "type": "t_mapping(t_address,t_mapping(t_address,t_bool))"
      },
      {
        "astId": 8,
        "contract": "contracts/NFTWhitelist.sol:NFTWhitelist",
        "label": "_owner",
        "offset": 0,
        "slot": "6",
        "type": "t_address"
      },
      {
        "astId": 6541,
        "contract": "contracts/NFTWhitelist.sol:NFTWhitelist",
        "label": "cost",
        "offset": 0,
        "slot": "7",
        "type": "t_uint256"
      },
      {
        "astId": 6543,
        "contract": "contracts/NFTWhitelist.sol:NFTWhitelist",
        "label": "maxSupply",
        "offset": 0,
        "slot": "8",
        "type": "t_uint256"
      },
      {
        "astId": 6545,
        "contract": "contracts/NFTWhitelist.sol:NFTWhitelist",
        "label": "maxPerWallet",
        "offset": 0,
        "slot": "9",
        "type": "t_uint256"
      },
      {
        "astId": 6547,
        "contract": "contracts/NFTWhitelist.sol:NFTWhitelist",
        "label": "totalSupply",
        "offset": 0,
        "slot": "10",
        "type": "t_uint256"
      },
      {
        "astId": 6549,
        "contract": "contracts/NFTWhitelist.sol:NFTWhitelist",
        "label": "baseURI",
        "offset": 0,
        "slot": "11",
        "type": "t_string_storage"
      },
      {
        "astId": 6553,
        "contract": "contracts/NFTWhitelist.sol:NFTWhitelist",
        "label": "whitelisted",
        "offset": 0,
        "slot": "12",
        "type": "t_mapping(t_address,t_bool)"
      },
      {
        "astId": 6557,
        "contract": "contracts/NFTWhitelist.sol:NFTWhitelist",
        "label": "mintedPerWallet",
        "offset": 0,
        "slot": "13",
        "type": "t_mapping(t_address,t_uint256)"
      }
    ],
    "types": {
      "t_address": {
        "encoding": "inplace",
        "label": "address",
        "numberOfBytes": "20"
      },
      "t_bool": {
        "encoding": "inplace",
        "label": "bool",
        "numberOfBytes": "1"
      },
      "t_mapping(t_address,t_bool)": {
        "encoding": "mapping",
        "key": "t_address",
        "label": "mapping(address => bool)",
        "numberOfBytes": "32",
        "value": "t_bool"
      },
      "t_mapping(t_address,t_mapping(t_address,t_bool))": {
        "encoding": "mapping",
        "key": "t_address",
        "label": "mapping(address => mapping(address => bool))",
        "numberOfBytes": "32",
        "value": "t_mapping(t_address,t_bool)"
      },
      "t_mapping(t_address,t_uint256)": {
        "encoding": "mapping",
        "key": "t_address",
        "label": "mapping(address => uint256)",
        "numberOfBytes": "32",
        "value": "t_uint256"
      },
      "t_mapping(t_uint256,t_address)": {
        "encoding": "mapping",
        "key": "t_uint256",
        "label": "mapping(uint256 => address)",
        "numberOfBytes": "32",
        "value": "t_address"
      },
      "t_string_storage": {
        "encoding": "bytes",
        "label": "string",
        "numberOfBytes": "32"
      },
      "t_uint256": {
        "encoding": "inplace",
        "label": "uint256",
        "numberOfBytes": "32"
      }
    }
  }
}