{
  "address": "0x9e7E48707cf39514DADB48b6fc9716f6ee7cC94b",
  "abi": [
    {
      "inputs": [
        {
          "internalType": "address",
          "name": "_nftAddress",
          "type": "address"
        },
        {
          "internalType": "address",
          "name": "_helper",
          "type": "address"
        },
        {
          "internalType": "bytes32",
          "name": "_merkleRoot",
          "type": "bytes32"
        },
        {
          "internalType": "uint256",
          "name": "_whitelistEndTime",
          "type": "uint256"
        },
        {
          "internalType": "uint256",
          "name": "_price",
          "type": "uint256"
        },
        {
          "internalType": "uint256",
          "name": "_maxSupply",
          "type": "uint256"
        },
        {
          "internalType": "uint256",
          "name": "_maxPerWallet",
          "type": "uint256"
        }
      ],
      "stateMutability": "nonpayable",
      "type": "constructor"
    },
    {
      "inputs": [
        {
          "internalType": "address",
          "name": "owner",
          "type": "address"
        }
      ],
      "name": "OwnableInvalidOwner",
      "type": "error"
    },
    {
      "inputs": [
        {
          "internalType": "address",
          "name": "account",
          "type": "address"
        }
      ],
      "name": "OwnableUnauthorizedAccount",
      "type": "error"
    },
    {
      "anonymous": false,
      "inputs": [],
      "name": "ConfigUpdated",
      "type": "event"
    },
    {
      "anonymous": false,
      "inputs": [
        {
          "indexed": true,
          "internalType": "address",
          "name": "user",
          "type": "address"
        },
        {
          "indexed": false,
          "internalType": "uint256",
          "name": "amount",
          "type": "uint256"
        }
      ],
      "name": "Minted",
      "type": "event"
    },
    {
      "anonymous": false,
      "inputs": [
        {
          "indexed": true,
          "internalType": "address",
          "name": "previousOwner",
          "type": "address"
        },
        {
          "indexed": true,
          "internalType": "address",
          "name": "newOwner",
          "type": "address"
        }
      ],
      "name": "OwnershipTransferred",
      "type": "event"
    },
    {
      "inputs": [],
      "name": "maxPerWallet",
      "outputs": [
        {
          "internalType": "uint256",
          "name": "",
          "type": "uint256"
        }
      ],
      "stateMutability": "view",
      "type": "function"
    },
    {
      "inputs": [],
      "name": "maxSupply",
      "outputs": [
        {
          "internalType": "uint256",
          "name": "",
          "type": "uint256"
        }
      ],
      "stateMutability": "view",
      "type": "function"
    },
    {
      "inputs": [],
      "name": "merkleRoot",
      "outputs": [
        {
          "internalType": "bytes32",
          "name": "",
          "type": "bytes32"
        }
      ],
      "stateMutability": "view",
      "type": "function"
    },
    {
      "inputs": [],
      "name": "nft",
      "outputs": [
        {
          "internalType": "contract INFT",
          "name": "",
          "type": "address"
        }
      ],
      "stateMutability": "view",
      "type": "function"
    },
    {
      "inputs": [],
      "name": "owner",
      "outputs": [
        {
          "internalType": "address",
          "name": "",
          "type": "address"
        }
      ],
      "stateMutability": "view",
      "type": "function"
    },
    {
      "inputs": [],
      "name": "price",
      "outputs": [
        {
          "internalType": "uint256",
          "name": "",
          "type": "uint256"
        }
      ],
      "stateMutability": "view",
      "type": "function"
    },
    {
      "inputs": [],
      "name": "renounceOwnership",
      "outputs": [],
      "stateMutability": "nonpayable",
      "type": "function"
    },
    {
      "inputs": [
        {
          "internalType": "uint256",
          "name": "_maxPerWallet",
          "type": "uint256"
        }
      ],
      "name": "setMaxPerWallet",
      "outputs": [],
      "stateMutability": "nonpayable",
      "type": "function"
    },
    {
      "inputs": [
        {
          "internalType": "uint256",
          "name": "_maxSupply",
          "type": "uint256"
        }
      ],
      "name": "setMaxSupply",
      "outputs": [],
      "stateMutability": "nonpayable",
      "type": "function"
    },
    {
      "inputs": [
        {
          "internalType": "bytes32",
          "name": "_merkleRoot",
          "type": "bytes32"
        }
      ],
      "name": "setMerkleRoot",
      "outputs": [],
      "stateMutability": "nonpayable",
      "type": "function"
    },
    {
      "inputs": [
        {
          "internalType": "uint256",
          "name": "_price",
          "type": "uint256"
        }
      ],
      "name": "setPrice",
      "outputs": [],
      "stateMutability": "nonpayable",
      "type": "function"
    },
    {
      "inputs": [
        {
          "internalType": "uint256",
          "name": "_whitelistEndTime",
          "type": "uint256"
        }
      ],
      "name": "setWhitelistEndTime",
      "outputs": [],
      "stateMutability": "nonpayable",
      "type": "function"
    },
    {
      "inputs": [],
      "name": "totalMinted",
      "outputs": [
        {
          "internalType": "uint256",
          "name": "",
          "type": "uint256"
        }
      ],
      "stateMutability": "view",
      "type": "function"
    },
    {
      "inputs": [
        {
          "internalType": "address",
          "name": "newOwner",
          "type": "address"
        }
      ],
      "name": "transferOwnership",
      "outputs": [],
      "stateMutability": "nonpayable",
      "type": "function"
    },
    {
      "inputs": [],
      "name": "whitelistEndTime",
      "outputs": [
        {
          "internalType": "uint256",
          "name": "",
          "type": "uint256"
        }
      ],
      "stateMutability": "view",
      "type": "function"
    },
    {
      "inputs": [
        {
          "internalType": "uint256",
          "name": "amount",
          "type": "uint256"
        },
        {
          "internalType": "bytes32[]",
          "name": "proof",
          "type": "bytes32[]"
        }
      ],
      "name": "whitelistMint",
      "outputs": [],
      "stateMutability": "payable",
      "type": "function"
    },
    {
      "inputs": [],
      "name": "withdraw",
      "outputs": [],
      "stateMutability": "nonpayable",
      "type": "function"
    }
  ],
  "transactionHash": "0xef990cd2ef25d86d20a43669afc593f225597755b381d7b00cbb2512a11e937c",
  "args": [
    "0x54d037127BC8f2fEf32C3febDe268618596A07e9",
    "0xb5d726FDAC02ab0e04fa5799DccC31b7aA2a9e6E",
    "0x5e5e67e5659eef59dfed7a80a2796a3b7f145fa3f58d3f5b057fde3daa11a8a1",
    1754000700,
    "100000000000000",
    20,
    3
  ],
  "numDeployments": 1,
  "solcInputHash": "b3097ca480e8c176ae86d38e8aafcc33",
  "bytecode": "0x60803461011f57601f610b5f38819003918201601f19168301916001600160401b038311848410176101245780849260e09460405283398101031261011f576100478161013a565b906100546020820161013a565b906040810151606082015160808301519160c060a08501519401519433156101095760008054336001600160a01b0319821681178355604051999290916001600160a01b0316907f8be0079c531659141344cd1fd0a4f28419497f9722a3daafe3b4186f6b6457e09080a3600180546001600160a01b039283166001600160a01b03199182161790915560028054939092169216919091179055600355600455600555600655600755610a10908161014f8239f35b631e4fbdf760e01b600052600060045260246000fd5b600080fd5b634e487b7160e01b600052604160045260246000fd5b51906001600160a01b038216820361011f5756fe608080604052600436101561001357600080fd5b600090813560e01c9081632eb4a7ab14610921575080633ccfd60b146108d1578063453c2310146108b357806347ccca021461088c5780636f8b44b014610845578063715018a6146107df5780637cb64759146107985780638da5cb5b1461077257806391b7f5ed1461072b578063a035b1fe1461070d578063a2309ff8146106ef578063b9d6ed30146106a8578063d2cab05614610211578063d5abeb01146101f3578063e268e4d3146101ac578063ebdfd7221461018e5763f2fde38b146100dc57600080fd5b3461018b57602036600319011261018b576004356001600160a01b03811680910361018957610109610998565b801561015d576001600160a01b0382548273ffffffffffffffffffffffffffffffffffffffff198216178455167f8be0079c531659141344cd1fd0a4f28419497f9722a3daafe3b4186f6b6457e08380a380f35b6024827f1e4fbdf700000000000000000000000000000000000000000000000000000000815280600452fd5b505b80fd5b503461018b578060031936011261018b576020600454604051908152f35b503461018b57602036600319011261018b576101c6610998565b6004356007557ffe891c6ab12cf73707f8deb6600c12ba382e4cc31eb2b0a2754cad13075ed2d18180a180f35b503461018b578060031936011261018b576020600654604051908152f35b50604036600319011261018b576004359060243567ffffffffffffffff811161018957366023820112156101895780600401359067ffffffffffffffff82116106a4578160051b9136602484840101116104f95784156106605760085491610279868461093d565b6006541061061c576001600160a01b0360015416936040517f3a602b4d000000000000000000000000000000000000000000000000000000008152336004820152602081602481895afa801561061157889088906105d7575b6102dc925061093d565b60075410610593576004544211610514576001600160a01b036002541691600354907f07ffffffffffffffffffffffffffffffffffffffffffffffffffffffffffffff604051957f879c84e900000000000000000000000000000000000000000000000000000000875260606004880152806064880152116105105760848584602096948296602484960185850137602483015233604483015281010301915afa9081156105055784916104c6575b5015610482573461043e57836103a09161093d565b600855803b15610189578180916044604051809481937f40c10f190000000000000000000000000000000000000000000000000000000083523360048401528860248401525af1801561043357610423575b50906040519081527f30385c845b448a36257a6a1716e6ad2e1bc2cbe333cde1e69fe849ad6511adfe60203392a280f35b8161042d91610960565b386103f2565b6040513d84823e3d90fd5b606460405162461bcd60e51b815260206004820152601660248201527f57686974656c697374206d696e742069732066726565000000000000000000006044820152fd5b606460405162461bcd60e51b815260206004820152601460248201527f496e76616c6964204d65726b6c652050726f6f660000000000000000000000006044820152fd5b90506020813d6020116104fd575b816104e160209383610960565b810103126104f9575180151581036104f9573861038b565b8380fd5b3d91506104d4565b6040513d86823e3d90fd5b8780fd5b5050506005548481029080820486149015171561057f57341061053b57836103a09161093d565b606460405162461bcd60e51b815260206004820152601060248201527f496e73756666696369656e7420455448000000000000000000000000000000006044820152fd5b602484634e487b7160e01b81526011600452fd5b606460405162461bcd60e51b815260206004820152601760248201527f4d6178207065722077616c6c65742065786365656465640000000000000000006044820152fd5b50506020813d602011610609575b816105f260209383610960565b8101031261060557876102dc91516102d2565b8680fd5b3d91506105e5565b6040513d89823e3d90fd5b606460405162461bcd60e51b815260206004820152601360248201527f4d617820737570706c79206578636565646564000000000000000000000000006044820152fd5b606460405162461bcd60e51b815260206004820152600e60248201527f496e76616c696420616d6f756e740000000000000000000000000000000000006044820152fd5b8280fd5b503461018b57602036600319011261018b576106c2610998565b6004356004557ffe891c6ab12cf73707f8deb6600c12ba382e4cc31eb2b0a2754cad13075ed2d18180a180f35b503461018b578060031936011261018b576020600854604051908152f35b503461018b578060031936011261018b576020600554604051908152f35b503461018b57602036600319011261018b57610745610998565b6004356005557ffe891c6ab12cf73707f8deb6600c12ba382e4cc31eb2b0a2754cad13075ed2d18180a180f35b503461018b578060031936011261018b576001600160a01b036020915416604051908152f35b503461018b57602036600319011261018b576107b2610998565b6004356003557ffe891c6ab12cf73707f8deb6600c12ba382e4cc31eb2b0a2754cad13075ed2d18180a180f35b503461018b578060031936011261018b576107f8610998565b806001600160a01b03815473ffffffffffffffffffffffffffffffffffffffff1981168355167f8be0079c531659141344cd1fd0a4f28419497f9722a3daafe3b4186f6b6457e08280a380f35b503461018b57602036600319011261018b5761085f610998565b6004356006557ffe891c6ab12cf73707f8deb6600c12ba382e4cc31eb2b0a2754cad13075ed2d18180a180f35b503461018b578060031936011261018b5760206001600160a01b0360015416604051908152f35b503461018b578060031936011261018b576020600754604051908152f35b503461018b578060031936011261018b576108ea610998565b808080806001600160a01b038154164790828215610918575bf11561090c5780f35b604051903d90823e3d90fd5b506108fc610903565b9050346101895781600319360112610189576020906003548152f35b9190820180921161094a57565b634e487b7160e01b600052601160045260246000fd5b90601f8019910116810190811067ffffffffffffffff82111761098257604052565b634e487b7160e01b600052604160045260246000fd5b6001600160a01b036000541633036109ac57565b7f118cdaa7000000000000000000000000000000000000000000000000000000006000523360045260246000fdfea26469706673582212207b089a91d0facc2c073158ee1a0bf2a6498087868b37227bea7509d149e8a08b64736f6c634300081c0033",
  "devdoc": {
    "errors": {
      "OwnableInvalidOwner(address)": [
        {
          "details": "The owner is not a valid owner account. (eg. `address(0)`)"
        }
      ],
      "OwnableUnauthorizedAccount(address)": [
        {
          "details": "The caller account is not authorized to perform an operation."
        }
      ]
    },
    "kind": "dev",
    "methods": {
      "owner()": {
        "details": "Returns the address of the current owner."
      },
      "renounceOwnership()": {
        "details": "Leaves the contract without owner. It will not be possible to call `onlyOwner` functions. Can only be called by the current owner. NOTE: Renouncing ownership will leave the contract without an owner, thereby disabling any functionality that is only available to the owner."
      },
      "transferOwnership(address)": {
        "details": "Transfers ownership of the contract to a new account (`newOwner`). Can only be called by the current owner."
      }
    },
    "version": 1
  },
  "userdoc": {
    "kind": "user",
    "methods": {},
    "version": 1
  },
  "storageLayout": {
    "storage": [
      {
        "astId": 8,
        "contract": "contracts/v2/WhitelistSale.sol:WhitelistSale",
        "label": "_owner",
        "offset": 0,
        "slot": "0",
        "type": "t_address"
      },
      {
        "astId": 7831,
        "contract": "contracts/v2/WhitelistSale.sol:WhitelistSale",
        "label": "nft",
        "offset": 0,
        "slot": "1",
        "type": "t_contract(INFT)7813"
      },
      {
        "astId": 7834,
        "contract": "contracts/v2/WhitelistSale.sol:WhitelistSale",
        "label": "helper",
        "offset": 0,
        "slot": "2",
        "type": "t_contract(IMerkleHelper)7826"
      },
      {
        "astId": 7836,
        "contract": "contracts/v2/WhitelistSale.sol:WhitelistSale",
        "label": "merkleRoot",
        "offset": 0,
        "slot": "3",
        "type": "t_bytes32"
      },
      {
        "astId": 7838,
        "contract": "contracts/v2/WhitelistSale.sol:WhitelistSale",
        "label": "whitelistEndTime",
        "offset": 0,
        "slot": "4",
        "type": "t_uint256"
      },
      {
        "astId": 7840,
        "contract": "contracts/v2/WhitelistSale.sol:WhitelistSale",
        "label": "price",
        "offset": 0,
        "slot": "5",
        "type": "t_uint256"
      },
      {
        "astId": 7842,
        "contract": "contracts/v2/WhitelistSale.sol:WhitelistSale",
        "label": "maxSupply",
        "offset": 0,
        "slot": "6",
        "type": "t_uint256"
      },
      {
        "astId": 7844,
        "contract": "contracts/v2/WhitelistSale.sol:WhitelistSale",
        "label": "maxPerWallet",
        "offset": 0,
        "slot": "7",
        "type": "t_uint256"
      },
      {
        "astId": 7846,
        "contract": "contracts/v2/WhitelistSale.sol:WhitelistSale",
        "label": "totalMinted",
        "offset": 0,
        "slot": "8",
        "type": "t_uint256"
      }
    ],
    "types": {
      "t_address": {
        "encoding": "inplace",
        "label": "address",
        "numberOfBytes": "20"
      },
      "t_bytes32": {
        "encoding": "inplace",
        "label": "bytes32",
        "numberOfBytes": "32"
      },
      "t_contract(IMerkleHelper)7826": {
        "encoding": "inplace",
        "label": "contract IMerkleHelper",
        "numberOfBytes": "20"
      },
      "t_contract(INFT)7813": {
        "encoding": "inplace",
        "label": "contract INFT",
        "numberOfBytes": "20"
      },
      "t_uint256": {
        "encoding": "inplace",
        "label": "uint256",
        "numberOfBytes": "32"
      }
    }
  }
}